{
  "_format": "hh-sol-artifact-1",
  "contractName": "Exchange",
  "sourceName": "contracts/Exchange.sol",
  "abi": [
    {
      "inputs": [
        {
          "internalType": "address",
          "name": "_CryptoDevtoken",
          "type": "address"
        }
      ],
      "stateMutability": "nonpayable",
      "type": "constructor"
    },
    {
      "anonymous": false,
      "inputs": [
        {
          "indexed": true,
          "internalType": "address",
          "name": "owner",
          "type": "address"
        },
        {
          "indexed": true,
          "internalType": "address",
          "name": "spender",
          "type": "address"
        },
        {
          "indexed": false,
          "internalType": "uint256",
          "name": "value",
          "type": "uint256"
        }
      ],
      "name": "Approval",
      "type": "event"
    },
    {
      "anonymous": false,
      "inputs": [
        {
          "indexed": true,
          "internalType": "address",
          "name": "from",
          "type": "address"
        },
        {
          "indexed": true,
          "internalType": "address",
          "name": "to",
          "type": "address"
        },
        {
          "indexed": false,
          "internalType": "uint256",
          "name": "value",
          "type": "uint256"
        }
      ],
      "name": "Transfer",
      "type": "event"
    },
    {
      "inputs": [
        {
          "internalType": "uint256",
          "name": "_amount",
          "type": "uint256"
        }
      ],
      "name": "addLiquidity",
      "outputs": [
        {
          "internalType": "uint256",
          "name": "",
          "type": "uint256"
        }
      ],
      "stateMutability": "payable",
      "type": "function"
    },
    {
      "inputs": [
        {
          "internalType": "address",
          "name": "owner",
          "type": "address"
        },
        {
          "internalType": "address",
          "name": "spender",
          "type": "address"
        }
      ],
      "name": "allowance",
      "outputs": [
        {
          "internalType": "uint256",
          "name": "",
          "type": "uint256"
        }
      ],
      "stateMutability": "view",
      "type": "function"
    },
    {
      "inputs": [
        {
          "internalType": "address",
          "name": "spender",
          "type": "address"
        },
        {
          "internalType": "uint256",
          "name": "amount",
          "type": "uint256"
        }
      ],
      "name": "approve",
      "outputs": [
        {
          "internalType": "bool",
          "name": "",
          "type": "bool"
        }
      ],
      "stateMutability": "nonpayable",
      "type": "function"
    },
    {
      "inputs": [
        {
          "internalType": "address",
          "name": "account",
          "type": "address"
        }
      ],
      "name": "balanceOf",
      "outputs": [
        {
          "internalType": "uint256",
          "name": "",
          "type": "uint256"
        }
      ],
      "stateMutability": "view",
      "type": "function"
    },
    {
      "inputs": [],
      "name": "cryptoDevTokenAddress",
      "outputs": [
        {
          "internalType": "address",
          "name": "",
          "type": "address"
        }
      ],
      "stateMutability": "view",
      "type": "function"
    },
    {
      "inputs": [
        {
          "internalType": "uint256",
          "name": "_tokensSold",
          "type": "uint256"
        },
        {
          "internalType": "uint256",
          "name": "_minEth",
          "type": "uint256"
        }
      ],
      "name": "cryptoDevTokenToEth",
      "outputs": [],
      "stateMutability": "nonpayable",
      "type": "function"
    },
    {
      "inputs": [],
      "name": "decimals",
      "outputs": [
        {
          "internalType": "uint8",
          "name": "",
          "type": "uint8"
        }
      ],
      "stateMutability": "view",
      "type": "function"
    },
    {
      "inputs": [
        {
          "internalType": "address",
          "name": "spender",
          "type": "address"
        },
        {
          "internalType": "uint256",
          "name": "subtractedValue",
          "type": "uint256"
        }
      ],
      "name": "decreaseAllowance",
      "outputs": [
        {
          "internalType": "bool",
          "name": "",
          "type": "bool"
        }
      ],
      "stateMutability": "nonpayable",
      "type": "function"
    },
    {
      "inputs": [
        {
          "internalType": "uint256",
          "name": "_minTokens",
          "type": "uint256"
        }
      ],
      "name": "ethToCryptoDevToken",
      "outputs": [],
      "stateMutability": "payable",
      "type": "function"
    },
    {
      "inputs": [
        {
          "internalType": "uint256",
          "name": "inputAmount",
          "type": "uint256"
        },
        {
          "internalType": "uint256",
          "name": "inputReserve",
          "type": "uint256"
        },
        {
          "internalType": "uint256",
          "name": "outputReserve",
          "type": "uint256"
        }
      ],
      "name": "getAmountOfTokens",
      "outputs": [
        {
          "internalType": "uint256",
          "name": "",
          "type": "uint256"
        }
      ],
      "stateMutability": "pure",
      "type": "function"
    },
    {
      "inputs": [],
      "name": "getReserve",
      "outputs": [
        {
          "internalType": "uint256",
          "name": "",
          "type": "uint256"
        }
      ],
      "stateMutability": "view",
      "type": "function"
    },
    {
      "inputs": [
        {
          "internalType": "address",
          "name": "spender",
          "type": "address"
        },
        {
          "internalType": "uint256",
          "name": "addedValue",
          "type": "uint256"
        }
      ],
      "name": "increaseAllowance",
      "outputs": [
        {
          "internalType": "bool",
          "name": "",
          "type": "bool"
        }
      ],
      "stateMutability": "nonpayable",
      "type": "function"
    },
    {
      "inputs": [],
      "name": "name",
      "outputs": [
        {
          "internalType": "string",
          "name": "",
          "type": "string"
        }
      ],
      "stateMutability": "view",
      "type": "function"
    },
    {
      "inputs": [
        {
          "internalType": "uint256",
          "name": "_amount",
          "type": "uint256"
        }
      ],
      "name": "removeLiquidity",
      "outputs": [
        {
          "internalType": "uint256",
          "name": "",
          "type": "uint256"
        },
        {
          "internalType": "uint256",
          "name": "",
          "type": "uint256"
        }
      ],
      "stateMutability": "nonpayable",
      "type": "function"
    },
    {
      "inputs": [],
      "name": "symbol",
      "outputs": [
        {
          "internalType": "string",
          "name": "",
          "type": "string"
        }
      ],
      "stateMutability": "view",
      "type": "function"
    },
    {
      "inputs": [],
      "name": "totalSupply",
      "outputs": [
        {
          "internalType": "uint256",
          "name": "",
          "type": "uint256"
        }
      ],
      "stateMutability": "view",
      "type": "function"
    },
    {
      "inputs": [
        {
          "internalType": "address",
          "name": "to",
          "type": "address"
        },
        {
          "internalType": "uint256",
          "name": "amount",
          "type": "uint256"
        }
      ],
      "name": "transfer",
      "outputs": [
        {
          "internalType": "bool",
          "name": "",
          "type": "bool"
        }
      ],
      "stateMutability": "nonpayable",
      "type": "function"
    },
    {
      "inputs": [
        {
          "internalType": "address",
          "name": "from",
          "type": "address"
        },
        {
          "internalType": "address",
          "name": "to",
          "type": "address"
        },
        {
          "internalType": "uint256",
          "name": "amount",
          "type": "uint256"
        }
      ],
      "name": "transferFrom",
      "outputs": [
        {
          "internalType": "bool",
          "name": "",
          "type": "bool"
        }
      ],
      "stateMutability": "nonpayable",
      "type": "function"
    }
  ],
  "bytecode": "0x60806040523480156200001157600080fd5b5060405162002a1d38038062002a1d8339818101604052810190620000379190620002ac565b6040518060400160405280601381526020017f4869626572204e757473204c5020546f6b656e000000000000000000000000008152506040518060400160405280600481526020017f524a4c50000000000000000000000000000000000000000000000000000000008152508160039080519060200190620000bb92919062000192565b508060049080519060200190620000d492919062000192565b505050600073ffffffffffffffffffffffffffffffffffffffff168173ffffffffffffffffffffffffffffffffffffffff1614156200014a576040517f08c379a0000000000000000000000000000000000000000000000000000000008152600401620001419062000365565b60405180910390fd5b80600560006101000a81548173ffffffffffffffffffffffffffffffffffffffff021916908373ffffffffffffffffffffffffffffffffffffffff16021790555050620003ec565b828054620001a090620003b6565b90600052602060002090601f016020900481019282620001c4576000855562000210565b82601f10620001df57805160ff191683800117855562000210565b8280016001018555821562000210579182015b828111156200020f578251825591602001919060010190620001f2565b5b5090506200021f919062000223565b5090565b5b808211156200023e57600081600090555060010162000224565b5090565b600080fd5b600073ffffffffffffffffffffffffffffffffffffffff82169050919050565b6000620002748262000247565b9050919050565b620002868162000267565b81146200029257600080fd5b50565b600081519050620002a6816200027b565b92915050565b600060208284031215620002c557620002c462000242565b5b6000620002d58482850162000295565b91505092915050565b600082825260208201905092915050565b7f546f6b656e2061646472657373207061737365642069732061206e756c6c206160008201527f6464726573730000000000000000000000000000000000000000000000000000602082015250565b60006200034d602683620002de565b91506200035a82620002ef565b604082019050919050565b6000602082019050818103600083015262000380816200033e565b9050919050565b7f4e487b7100000000000000000000000000000000000000000000000000000000600052602260045260246000fd5b60006002820490506001821680620003cf57607f821691505b60208210811415620003e657620003e562000387565b5b50919050565b61262180620003fc6000396000f3fe6080604052600436106101095760003560e01c806370a08231116100955780639e7a2922116100645780639e7a2922146103ad578063a457c2d7146103d8578063a9059cbb14610415578063dd62ed3e14610452578063f0566bb71461048f57610109565b806370a08231146102ca5780637386479e1461030757806395d89b41146103445780639c8f9f231461036f57610109565b8063313ce567116100dc578063313ce567146101de578063395093511461020957806351c6590a1461024657806359bf5d39146102765780636c25a25a146102a157610109565b806306fdde031461010e578063095ea7b31461013957806318160ddd1461017657806323b872dd146101a1575b600080fd5b34801561011a57600080fd5b506101236104ab565b6040516101309190611853565b60405180910390f35b34801561014557600080fd5b50610160600480360381019061015b919061190e565b61053d565b60405161016d9190611969565b60405180910390f35b34801561018257600080fd5b5061018b610560565b6040516101989190611993565b60405180910390f35b3480156101ad57600080fd5b506101c860048036038101906101c391906119ae565b61056a565b6040516101d59190611969565b60405180910390f35b3480156101ea57600080fd5b506101f3610599565b6040516102009190611a1d565b60405180910390f35b34801561021557600080fd5b50610230600480360381019061022b919061190e565b6105a2565b60405161023d9190611969565b60405180910390f35b610260600480360381019061025b9190611a38565b6105d9565b60405161026d9190611993565b60405180910390f35b34801561028257600080fd5b5061028b6107f6565b6040516102989190611993565b60405180910390f35b3480156102ad57600080fd5b506102c860048036038101906102c39190611a65565b6108a8565b005b3480156102d657600080fd5b506102f160048036038101906102ec9190611aa5565b610a05565b6040516102fe9190611993565b60405180910390f35b34801561031357600080fd5b5061032e60048036038101906103299190611ad2565b610a4d565b60405161033b9190611993565b60405180910390f35b34801561035057600080fd5b50610359610afe565b6040516103669190611853565b60405180910390f35b34801561037b57600080fd5b5061039660048036038101906103919190611a38565b610b90565b6040516103a4929190611b25565b60405180910390f35b3480156103b957600080fd5b506103c2610d34565b6040516103cf9190611b5d565b60405180910390f35b3480156103e457600080fd5b506103ff60048036038101906103fa919061190e565b610d5a565b60405161040c9190611969565b60405180910390f35b34801561042157600080fd5b5061043c6004803603810190610437919061190e565b610dd1565b6040516104499190611969565b60405180910390f35b34801561045e57600080fd5b5061047960048036038101906104749190611b78565b610df4565b6040516104869190611993565b60405180910390f35b6104a960048036038101906104a49190611a38565b610e7b565b005b6060600380546104ba90611be7565b80601f01602080910402602001604051908101604052809291908181526020018280546104e690611be7565b80156105335780601f1061050857610100808354040283529160200191610533565b820191906000526020600020905b81548152906001019060200180831161051657829003601f168201915b5050505050905090565b600080610548610f99565b9050610555818585610fa1565b600191505092915050565b6000600254905090565b600080610575610f99565b905061058285828561116c565b61058d8585856111f8565b60019150509392505050565b60006012905090565b6000806105ad610f99565b90506105ce8185856105bf8589610df4565b6105c99190611c48565b610fa1565b600191505092915050565b600080600047905060006105eb6107f6565b90506000600560009054906101000a900473ffffffffffffffffffffffffffffffffffffffff16905060008214156106bf578073ffffffffffffffffffffffffffffffffffffffff166323b872dd3330896040518463ffffffff1660e01b815260040161065a93929190611c9e565b602060405180830381600087803b15801561067457600080fd5b505af1158015610688573d6000803e3d6000fd5b505050506040513d601f19601f820116820180604052508101906106ac9190611d01565b508293506106ba3385611479565b6107ea565b600034846106cd9190611d2e565b905060008184346106de9190611d62565b6106e89190611deb565b90508088101561072d576040517f08c379a000000000000000000000000000000000000000000000000000000000815260040161072490611e8e565b60405180910390fd5b8273ffffffffffffffffffffffffffffffffffffffff166323b872dd3330846040518463ffffffff1660e01b815260040161076a93929190611c9e565b602060405180830381600087803b15801561078457600080fd5b505af1158015610798573d6000803e3d6000fd5b505050506040513d601f19601f820116820180604052508101906107bc9190611d01565b5081346107c7610560565b6107d19190611d62565b6107db9190611deb565b95506107e73387611479565b50505b83945050505050919050565b6000600560009054906101000a900473ffffffffffffffffffffffffffffffffffffffff1673ffffffffffffffffffffffffffffffffffffffff166370a08231306040518263ffffffff1660e01b81526004016108539190611b5d565b60206040518083038186803b15801561086b57600080fd5b505afa15801561087f573d6000803e3d6000fd5b505050506040513d601f19601f820116820180604052508101906108a39190611ec3565b905090565b60006108b26107f6565b905060006108c1848347610a4d565b905082811015610906576040517f08c379a00000000000000000000000000000000000000000000000000000000081526004016108fd90611f3c565b60405180910390fd5b600560009054906101000a900473ffffffffffffffffffffffffffffffffffffffff1673ffffffffffffffffffffffffffffffffffffffff166323b872dd3330876040518463ffffffff1660e01b815260040161096593929190611c9e565b602060405180830381600087803b15801561097f57600080fd5b505af1158015610993573d6000803e3d6000fd5b505050506040513d601f19601f820116820180604052508101906109b79190611d01565b503373ffffffffffffffffffffffffffffffffffffffff166108fc829081150290604051600060405180830381858888f193505050501580156109fe573d6000803e3d6000fd5b5050505050565b60008060008373ffffffffffffffffffffffffffffffffffffffff1673ffffffffffffffffffffffffffffffffffffffff168152602001908152602001600020549050919050565b60008083118015610a5e5750600082115b610a9d576040517f08c379a0000000000000000000000000000000000000000000000000000000008152600401610a9490611fa8565b60405180910390fd5b60006064606386610aae9190611d62565b610ab89190611deb565b905060008382610ac89190611d62565b9050600082606487610ada9190611d62565b610ae49190611c48565b90508082610af29190611deb565b93505050509392505050565b606060048054610b0d90611be7565b80601f0160208091040260200160405190810160405280929190818152602001828054610b3990611be7565b8015610b865780601f10610b5b57610100808354040283529160200191610b86565b820191906000526020600020905b815481529060010190602001808311610b6957829003601f168201915b5050505050905090565b60008060008311610bd6576040517f08c379a0000000000000000000000000000000000000000000000000000000008152600401610bcd9061203a565b60405180910390fd5b60004790506000610be5610560565b90506000818684610bf69190611d62565b610c009190611deb565b905060008287610c0e6107f6565b610c189190611d62565b610c229190611deb565b9050610c2e33886115d9565b3373ffffffffffffffffffffffffffffffffffffffff166108fc839081150290604051600060405180830381858888f19350505050158015610c74573d6000803e3d6000fd5b50600560009054906101000a900473ffffffffffffffffffffffffffffffffffffffff1673ffffffffffffffffffffffffffffffffffffffff1663a9059cbb33836040518363ffffffff1660e01b8152600401610cd292919061205a565b602060405180830381600087803b158015610cec57600080fd5b505af1158015610d00573d6000803e3d6000fd5b505050506040513d601f19601f82011682018060405250810190610d249190611d01565b5081819550955050505050915091565b600560009054906101000a900473ffffffffffffffffffffffffffffffffffffffff1681565b600080610d65610f99565b90506000610d738286610df4565b905083811015610db8576040517f08c379a0000000000000000000000000000000000000000000000000000000008152600401610daf906120f5565b60405180910390fd5b610dc58286868403610fa1565b60019250505092915050565b600080610ddc610f99565b9050610de98185856111f8565b600191505092915050565b6000600160008473ffffffffffffffffffffffffffffffffffffffff1673ffffffffffffffffffffffffffffffffffffffff16815260200190815260200160002060008373ffffffffffffffffffffffffffffffffffffffff1673ffffffffffffffffffffffffffffffffffffffff16815260200190815260200160002054905092915050565b6000610e856107f6565b90506000610e9f343447610e999190611d2e565b84610a4d565b905082811015610ee4576040517f08c379a0000000000000000000000000000000000000000000000000000000008152600401610edb90611f3c565b60405180910390fd5b600560009054906101000a900473ffffffffffffffffffffffffffffffffffffffff1673ffffffffffffffffffffffffffffffffffffffff1663a9059cbb33836040518363ffffffff1660e01b8152600401610f4192919061205a565b602060405180830381600087803b158015610f5b57600080fd5b505af1158015610f6f573d6000803e3d6000fd5b505050506040513d601f19601f82011682018060405250810190610f939190611d01565b50505050565b600033905090565b600073ffffffffffffffffffffffffffffffffffffffff168373ffffffffffffffffffffffffffffffffffffffff161415611011576040517f08c379a000000000000000000000000000000000000000000000000000000000815260040161100890612187565b60405180910390fd5b600073ffffffffffffffffffffffffffffffffffffffff168273ffffffffffffffffffffffffffffffffffffffff161415611081576040517f08c379a000000000000000000000000000000000000000000000000000000000815260040161107890612219565b60405180910390fd5b80600160008573ffffffffffffffffffffffffffffffffffffffff1673ffffffffffffffffffffffffffffffffffffffff16815260200190815260200160002060008473ffffffffffffffffffffffffffffffffffffffff1673ffffffffffffffffffffffffffffffffffffffff168152602001908152602001600020819055508173ffffffffffffffffffffffffffffffffffffffff168373ffffffffffffffffffffffffffffffffffffffff167f8c5be1e5ebec7d5bd14f71427d1e84f3dd0314c0f7b2291e5b200ac8c7c3b9258360405161115f9190611993565b60405180910390a3505050565b60006111788484610df4565b90507fffffffffffffffffffffffffffffffffffffffffffffffffffffffffffffffff81146111f257818110156111e4576040517f08c379a00000000000000000000000000000000000000000000000000000000081526004016111db90612285565b60405180910390fd5b6111f18484848403610fa1565b5b50505050565b600073ffffffffffffffffffffffffffffffffffffffff168373ffffffffffffffffffffffffffffffffffffffff161415611268576040517f08c379a000000000000000000000000000000000000000000000000000000000815260040161125f90612317565b60405180910390fd5b600073ffffffffffffffffffffffffffffffffffffffff168273ffffffffffffffffffffffffffffffffffffffff1614156112d8576040517f08c379a00000000000000000000000000000000000000000000000000000000081526004016112cf906123a9565b60405180910390fd5b6112e38383836117b0565b60008060008573ffffffffffffffffffffffffffffffffffffffff1673ffffffffffffffffffffffffffffffffffffffff16815260200190815260200160002054905081811015611369576040517f08c379a00000000000000000000000000000000000000000000000000000000081526004016113609061243b565b60405180910390fd5b8181036000808673ffffffffffffffffffffffffffffffffffffffff1673ffffffffffffffffffffffffffffffffffffffff16815260200190815260200160002081905550816000808573ffffffffffffffffffffffffffffffffffffffff1673ffffffffffffffffffffffffffffffffffffffff16815260200190815260200160002060008282546113fc9190611c48565b925050819055508273ffffffffffffffffffffffffffffffffffffffff168473ffffffffffffffffffffffffffffffffffffffff167fddf252ad1be2c89b69c2b068fc378daa952ba7f163c4a11628f55a4df523b3ef846040516114609190611993565b60405180910390a36114738484846117b5565b50505050565b600073ffffffffffffffffffffffffffffffffffffffff168273ffffffffffffffffffffffffffffffffffffffff1614156114e9576040517f08c379a00000000000000000000000000000000000000000000000000000000081526004016114e0906124a7565b60405180910390fd5b6114f5600083836117b0565b80600260008282546115079190611c48565b92505081905550806000808473ffffffffffffffffffffffffffffffffffffffff1673ffffffffffffffffffffffffffffffffffffffff168152602001908152602001600020600082825461155c9190611c48565b925050819055508173ffffffffffffffffffffffffffffffffffffffff16600073ffffffffffffffffffffffffffffffffffffffff167fddf252ad1be2c89b69c2b068fc378daa952ba7f163c4a11628f55a4df523b3ef836040516115c19190611993565b60405180910390a36115d5600083836117b5565b5050565b600073ffffffffffffffffffffffffffffffffffffffff168273ffffffffffffffffffffffffffffffffffffffff161415611649576040517f08c379a000000000000000000000000000000000000000000000000000000000815260040161164090612539565b60405180910390fd5b611655826000836117b0565b60008060008473ffffffffffffffffffffffffffffffffffffffff1673ffffffffffffffffffffffffffffffffffffffff168152602001908152602001600020549050818110156116db576040517f08c379a00000000000000000000000000000000000000000000000000000000081526004016116d2906125cb565b60405180910390fd5b8181036000808573ffffffffffffffffffffffffffffffffffffffff1673ffffffffffffffffffffffffffffffffffffffff1681526020019081526020016000208190555081600260008282546117329190611d2e565b92505081905550600073ffffffffffffffffffffffffffffffffffffffff168373ffffffffffffffffffffffffffffffffffffffff167fddf252ad1be2c89b69c2b068fc378daa952ba7f163c4a11628f55a4df523b3ef846040516117979190611993565b60405180910390a36117ab836000846117b5565b505050565b505050565b505050565b600081519050919050565b600082825260208201905092915050565b60005b838110156117f45780820151818401526020810190506117d9565b83811115611803576000848401525b50505050565b6000601f19601f8301169050919050565b6000611825826117ba565b61182f81856117c5565b935061183f8185602086016117d6565b61184881611809565b840191505092915050565b6000602082019050818103600083015261186d818461181a565b905092915050565b600080fd5b600073ffffffffffffffffffffffffffffffffffffffff82169050919050565b60006118a58261187a565b9050919050565b6118b58161189a565b81146118c057600080fd5b50565b6000813590506118d2816118ac565b92915050565b6000819050919050565b6118eb816118d8565b81146118f657600080fd5b50565b600081359050611908816118e2565b92915050565b6000806040838503121561192557611924611875565b5b6000611933858286016118c3565b9250506020611944858286016118f9565b9150509250929050565b60008115159050919050565b6119638161194e565b82525050565b600060208201905061197e600083018461195a565b92915050565b61198d816118d8565b82525050565b60006020820190506119a86000830184611984565b92915050565b6000806000606084860312156119c7576119c6611875565b5b60006119d5868287016118c3565b93505060206119e6868287016118c3565b92505060406119f7868287016118f9565b9150509250925092565b600060ff82169050919050565b611a1781611a01565b82525050565b6000602082019050611a326000830184611a0e565b92915050565b600060208284031215611a4e57611a4d611875565b5b6000611a5c848285016118f9565b91505092915050565b60008060408385031215611a7c57611a7b611875565b5b6000611a8a858286016118f9565b9250506020611a9b858286016118f9565b9150509250929050565b600060208284031215611abb57611aba611875565b5b6000611ac9848285016118c3565b91505092915050565b600080600060608486031215611aeb57611aea611875565b5b6000611af9868287016118f9565b9350506020611b0a868287016118f9565b9250506040611b1b868287016118f9565b9150509250925092565b6000604082019050611b3a6000830185611984565b611b476020830184611984565b9392505050565b611b578161189a565b82525050565b6000602082019050611b726000830184611b4e565b92915050565b60008060408385031215611b8f57611b8e611875565b5b6000611b9d858286016118c3565b9250506020611bae858286016118c3565b9150509250929050565b7f4e487b7100000000000000000000000000000000000000000000000000000000600052602260045260246000fd5b60006002820490506001821680611bff57607f821691505b60208210811415611c1357611c12611bb8565b5b50919050565b7f4e487b7100000000000000000000000000000000000000000000000000000000600052601160045260246000fd5b6000611c53826118d8565b9150611c5e836118d8565b9250827fffffffffffffffffffffffffffffffffffffffffffffffffffffffffffffffff03821115611c9357611c92611c19565b5b828201905092915050565b6000606082019050611cb36000830186611b4e565b611cc06020830185611b4e565b611ccd6040830184611984565b949350505050565b611cde8161194e565b8114611ce957600080fd5b50565b600081519050611cfb81611cd5565b92915050565b600060208284031215611d1757611d16611875565b5b6000611d2584828501611cec565b91505092915050565b6000611d39826118d8565b9150611d44836118d8565b925082821015611d5757611d56611c19565b5b828203905092915050565b6000611d6d826118d8565b9150611d78836118d8565b9250817fffffffffffffffffffffffffffffffffffffffffffffffffffffffffffffffff0483118215151615611db157611db0611c19565b5b828202905092915050565b7f4e487b7100000000000000000000000000000000000000000000000000000000600052601260045260246000fd5b6000611df6826118d8565b9150611e01836118d8565b925082611e1157611e10611dbc565b5b828204905092915050565b7f416d6f756e74206f6620746f6b656e732073656e74206973206c65737320746860008201527f616e20746865206d696e696d756d20746f6b656e732072657175697265640000602082015250565b6000611e78603e836117c5565b9150611e8382611e1c565b604082019050919050565b60006020820190508181036000830152611ea781611e6b565b9050919050565b600081519050611ebd816118e2565b92915050565b600060208284031215611ed957611ed8611875565b5b6000611ee784828501611eae565b91505092915050565b7f696e73756666696369656e74206f757470757420616d6f756e74000000000000600082015250565b6000611f26601a836117c5565b9150611f3182611ef0565b602082019050919050565b60006020820190508181036000830152611f5581611f19565b9050919050565b7f696e76616c696420726573657276657300000000000000000000000000000000600082015250565b6000611f926010836117c5565b9150611f9d82611f5c565b602082019050919050565b60006020820190508181036000830152611fc181611f85565b9050919050565b7f5f616d6f756e742073686f756c642062652067726561746572207468616e207a60008201527f65726f0000000000000000000000000000000000000000000000000000000000602082015250565b60006120246023836117c5565b915061202f82611fc8565b604082019050919050565b6000602082019050818103600083015261205381612017565b9050919050565b600060408201905061206f6000830185611b4e565b61207c6020830184611984565b9392505050565b7f45524332303a2064656372656173656420616c6c6f77616e63652062656c6f7760008201527f207a65726f000000000000000000000000000000000000000000000000000000602082015250565b60006120df6025836117c5565b91506120ea82612083565b604082019050919050565b6000602082019050818103600083015261210e816120d2565b9050919050565b7f45524332303a20617070726f76652066726f6d20746865207a65726f2061646460008201527f7265737300000000000000000000000000000000000000000000000000000000602082015250565b60006121716024836117c5565b915061217c82612115565b604082019050919050565b600060208201905081810360008301526121a081612164565b9050919050565b7f45524332303a20617070726f766520746f20746865207a65726f20616464726560008201527f7373000000000000000000000000000000000000000000000000000000000000602082015250565b60006122036022836117c5565b915061220e826121a7565b604082019050919050565b60006020820190508181036000830152612232816121f6565b9050919050565b7f45524332303a20696e73756666696369656e7420616c6c6f77616e6365000000600082015250565b600061226f601d836117c5565b915061227a82612239565b602082019050919050565b6000602082019050818103600083015261229e81612262565b9050919050565b7f45524332303a207472616e736665722066726f6d20746865207a65726f20616460008201527f6472657373000000000000000000000000000000000000000000000000000000602082015250565b60006123016025836117c5565b915061230c826122a5565b604082019050919050565b60006020820190508181036000830152612330816122f4565b9050919050565b7f45524332303a207472616e7366657220746f20746865207a65726f206164647260008201527f6573730000000000000000000000000000000000000000000000000000000000602082015250565b60006123936023836117c5565b915061239e82612337565b604082019050919050565b600060208201905081810360008301526123c281612386565b9050919050565b7f45524332303a207472616e7366657220616d6f756e742065786365656473206260008201527f616c616e63650000000000000000000000000000000000000000000000000000602082015250565b60006124256026836117c5565b9150612430826123c9565b604082019050919050565b6000602082019050818103600083015261245481612418565b9050919050565b7f45524332303a206d696e7420746f20746865207a65726f206164647265737300600082015250565b6000612491601f836117c5565b915061249c8261245b565b602082019050919050565b600060208201905081810360008301526124c081612484565b9050919050565b7f45524332303a206275726e2066726f6d20746865207a65726f2061646472657360008201527f7300000000000000000000000000000000000000000000000000000000000000602082015250565b60006125236021836117c5565b915061252e826124c7565b604082019050919050565b6000602082019050818103600083015261255281612516565b9050919050565b7f45524332303a206275726e20616d6f756e7420657863656564732062616c616e60008201527f6365000000000000000000000000000000000000000000000000000000000000602082015250565b60006125b56022836117c5565b91506125c082612559565b604082019050919050565b600060208201905081810360008301526125e4816125a8565b905091905056fea264697066735822122019750a34a4c242e59eb3b16bd4aa926731cf19b4e155917d0ffe758a6995273c64736f6c63430008090033",
  "linkReferences": {},
  "deployedLinkReferences": {}
}